{
  "contractName": "Faucet",
  "abi": [
    {
      "inputs": [],
      "name": "noOfFunders",
      "outputs": [
        {
          "internalType": "uint256",
          "name": "",
          "type": "uint256"
        }
      ],
      "stateMutability": "view",
      "type": "function",
      "constant": true
    },
    {
      "inputs": [],
      "name": "owner",
      "outputs": [
        {
          "internalType": "address",
          "name": "",
          "type": "address"
        }
      ],
      "stateMutability": "view",
      "type": "function",
      "constant": true
    },
    {
      "inputs": [],
      "name": "test5",
      "outputs": [
        {
          "internalType": "uint256",
          "name": "",
          "type": "uint256"
        }
      ],
      "stateMutability": "pure",
      "type": "function",
      "constant": true
    },
    {
      "inputs": [],
      "name": "testNum",
      "outputs": [
        {
          "internalType": "uint256",
          "name": "",
          "type": "uint256"
        }
      ],
      "stateMutability": "view",
      "type": "function",
      "constant": true
    },
    {
      "stateMutability": "payable",
      "type": "receive",
      "payable": true
    },
    {
      "inputs": [],
      "name": "addFunds",
      "outputs": [],
      "stateMutability": "payable",
      "type": "function",
      "payable": true
    },
    {
      "inputs": [
        {
          "internalType": "uint8",
          "name": "index",
          "type": "uint8"
        }
      ],
      "name": "getFunderAtIndex",
      "outputs": [
        {
          "internalType": "address",
          "name": "",
          "type": "address"
        }
      ],
      "stateMutability": "view",
      "type": "function",
      "constant": true
    },
    {
      "inputs": [],
      "name": "getAllFunders",
      "outputs": [
        {
          "internalType": "address[]",
          "name": "",
          "type": "address[]"
        }
      ],
      "stateMutability": "view",
      "type": "function",
      "constant": true
    },
    {
      "inputs": [
        {
          "internalType": "uint256",
          "name": "withdrawAmount",
          "type": "uint256"
        }
      ],
      "name": "withdraw",
      "outputs": [],
      "stateMutability": "nonpayable",
      "type": "function"
    },
    {
      "inputs": [],
      "name": "test1",
      "outputs": [],
      "stateMutability": "view",
      "type": "function",
      "constant": true
    },
    {
      "inputs": [],
      "name": "test2",
      "outputs": [],
      "stateMutability": "view",
      "type": "function",
      "constant": true
    },
    {
      "inputs": [],
      "name": "emitLog",
      "outputs": [
        {
          "internalType": "bytes32",
          "name": "",
          "type": "bytes32"
        }
      ],
      "stateMutability": "pure",
      "type": "function",
      "constant": true
    }
  ],
  "bytecode": "0x608060405234801561001057600080fd5b50336000806101000a81548173ffffffffffffffffffffffffffffffffffffffff021916908373ffffffffffffffffffffffffffffffffffffffff1602179055506103e8600181905550610b79806100696000396000f3fe6080604052600436106100a05760003560e01c80636b59084d116100645780636b59084d1461017f5780636fbbb55d146101965780638da5cb5b146101c1578063a26759cb146101ec578063ae28f1ed146101f6578063f42c13bf14610221576100a7565b80630a93cf33146100ac5780631ad7be82146100e95780632e1a7d4d1461011457806347cac45c1461013d57806366e41cb714610168576100a7565b366100a757005b600080fd5b3480156100b857600080fd5b506100d360048036038101906100ce919061070e565b61024c565b6040516100e0919061077c565b60405180910390f35b3480156100f557600080fd5b506100fe61028c565b60405161010b91906107b0565b60405180910390f35b34801561012057600080fd5b5061013b600480360381019061013691906107f7565b61029e565b005b34801561014957600080fd5b50610152610335565b60405161015f91906107b0565b60405180910390f35b34801561017457600080fd5b5061017d61033b565b005b34801561018b57600080fd5b506101946103cb565b005b3480156101a257600080fd5b506101ab61045b565b6040516101b891906108e2565b60405180910390f35b3480156101cd57600080fd5b506101d6610555565b6040516101e3919061077c565b60405180910390f35b6101f4610579565b005b34801561020257600080fd5b5061020b610699565b60405161021891906107b0565b60405180910390f35b34801561022d57600080fd5b5061023661069f565b604051610243919061091d565b60405180910390f35b6000600460008360ff16815260200190815260200160002060009054906101000a900473ffffffffffffffffffffffffffffffffffffffff169050919050565b60006102966106c7565b50600a905090565b80670de0b6b3a76400008111156102ea576040517f08c379a00000000000000000000000000000000000000000000000000000000081526004016102e1906109bb565b60405180910390fd5b3373ffffffffffffffffffffffffffffffffffffffff166108fc839081150290604051600060405180830381858888f19350505050158015610330573d6000803e3d6000fd5b505050565b60025481565b60008054906101000a900473ffffffffffffffffffffffffffffffffffffffff1673ffffffffffffffffffffffffffffffffffffffff163373ffffffffffffffffffffffffffffffffffffffff16146103c9576040517f08c379a00000000000000000000000000000000000000000000000000000000081526004016103c090610a4d565b60405180910390fd5b565b60008054906101000a900473ffffffffffffffffffffffffffffffffffffffff1673ffffffffffffffffffffffffffffffffffffffff163373ffffffffffffffffffffffffffffffffffffffff1614610459576040517f08c379a000000000000000000000000000000000000000000000000000000000815260040161045090610a4d565b60405180910390fd5b565b6060600060025467ffffffffffffffff81111561047b5761047a610a6d565b5b6040519080825280602002602001820160405280156104a95781602001602082028036833780820191505090505b50905060005b60025481101561054d576004600082815260200190815260200160002060009054906101000a900473ffffffffffffffffffffffffffffffffffffffff16828281518110610500576104ff610a9c565b5b602002602001019073ffffffffffffffffffffffffffffffffffffffff16908173ffffffffffffffffffffffffffffffffffffffff1681525050808061054590610afa565b9150506104af565b508091505090565b60008054906101000a900473ffffffffffffffffffffffffffffffffffffffff1681565b6000339050600360008273ffffffffffffffffffffffffffffffffffffffff1673ffffffffffffffffffffffffffffffffffffffff16815260200190815260200160002060009054906101000a900460ff16610696576000600260008154809291906105e490610afa565b9190505590506001600360008473ffffffffffffffffffffffffffffffffffffffff1673ffffffffffffffffffffffffffffffffffffffff16815260200190815260200160002060006101000a81548160ff021916908315150217905550816004600083815260200190815260200160002060006101000a81548173ffffffffffffffffffffffffffffffffffffffff021916908373ffffffffffffffffffffffffffffffffffffffff160217905550505b50565b60015481565b60007f48656c6c6f20576f726c64000000000000000000000000000000000000000000905090565b60006064905090565b600080fd5b600060ff82169050919050565b6106eb816106d5565b81146106f657600080fd5b50565b600081359050610708816106e2565b92915050565b600060208284031215610724576107236106d0565b5b6000610732848285016106f9565b91505092915050565b600073ffffffffffffffffffffffffffffffffffffffff82169050919050565b60006107668261073b565b9050919050565b6107768161075b565b82525050565b6000602082019050610791600083018461076d565b92915050565b6000819050919050565b6107aa81610797565b82525050565b60006020820190506107c560008301846107a1565b92915050565b6107d481610797565b81146107df57600080fd5b50565b6000813590506107f1816107cb565b92915050565b60006020828403121561080d5761080c6106d0565b5b600061081b848285016107e2565b91505092915050565b600081519050919050565b600082825260208201905092915050565b6000819050602082019050919050565b6108598161075b565b82525050565b600061086b8383610850565b60208301905092915050565b6000602082019050919050565b600061088f82610824565b610899818561082f565b93506108a483610840565b8060005b838110156108d55781516108bc888261085f565b97506108c783610877565b9250506001810190506108a8565b5085935050505092915050565b600060208201905081810360008301526108fc8184610884565b905092915050565b6000819050919050565b61091781610904565b82525050565b6000602082019050610932600083018461090e565b92915050565b600082825260208201905092915050565b7f416d6f756e742073686f756c64206265206c657373207468616e202e3120657460008201527f6865720000000000000000000000000000000000000000000000000000000000602082015250565b60006109a5602383610938565b91506109b082610949565b604082019050919050565b600060208201905081810360008301526109d481610998565b9050919050565b7f4f6e6c79206f776e65722063616e2063616c6c20746869732066756e6374696f60008201527f6e00000000000000000000000000000000000000000000000000000000000000602082015250565b6000610a37602183610938565b9150610a42826109db565b604082019050919050565b60006020820190508181036000830152610a6681610a2a565b9050919050565b7f4e487b7100000000000000000000000000000000000000000000000000000000600052604160045260246000fd5b7f4e487b7100000000000000000000000000000000000000000000000000000000600052603260045260246000fd5b7f4e487b7100000000000000000000000000000000000000000000000000000000600052601160045260246000fd5b6000610b0582610797565b91507fffffffffffffffffffffffffffffffffffffffffffffffffffffffffffffffff821415610b3857610b37610acb565b5b60018201905091905056fea264697066735822122010966e223c26316afec34de451bd8e122098960a50f7c0c21763db42b4315efe64736f6c634300080a0033",
  "immutableReferences": {},
  "source": "// SPDX-License-Identifier: MIT\npragma solidity >=0.4.22 <0.9.0;\nimport \"./Owned.sol\";\nimport \"./Logger.sol\";\nimport \"./IFaucet.sol\";\n\ncontract Faucet is Owned, Logger, IFaucet{\n  uint public noOfFunders;\n  mapping(address=>bool) private funders;\n  //lookup table, to prevent duplications\n  mapping(uint=>address) private lutFunders;\n\n  modifier limitWithdraw(uint withdrawAmount){\n    require(withdrawAmount <= 1000000000000000000,\"Amount should be less than .1 ether\");\n    //this under score is the function onwhich you are puting this condition/modifier\n    _;\n  }\n\n  // //payable means, this function can be used to send the funds\n  function addFunds() external payable {\n    address addressOfSender = msg.sender;\n    if(!funders[addressOfSender]){\n      uint index = noOfFunders++;\n      funders[addressOfSender] =true;\n      lutFunders[index] =addressOfSender;\n    }\n  }\n\n  function getFunderAtIndex(uint8 index) public view returns(address)  {\n      return lutFunders[index];\n  }\n  function getAllFunders() external view returns(address[] memory) {\n    address[] memory _funders = new address[](noOfFunders);\n    for (uint256 index = 0; index < noOfFunders; index++) {\n      _funders[index] = lutFunders[index];\n    }\n    return _funders;\n  }\n  function withdraw(uint withdrawAmount) external limitWithdraw(withdrawAmount){\n      payable(msg.sender).transfer(withdrawAmount);\n  }\n\n  function test1() external view onlyOwner {\n  }\n  function test2() external view onlyOwner {\n  }\n\n  //private: can only be accessable inside the contract\n  //internal: can only be accessable inside the contract & as well in derived smart contract\n  // //receive is a function that is called when a trx occured, but you dont specify any function to call\n  receive() external payable {}\n\n  function emitLog() public override pure returns(bytes32) {\n    return \"Hello World\";\n  }\n}\n//pure, view - read-only call, no gas free\n\n//veiw: it indicates that func will not change the storage in any way\n//pure: it indicates that func will not even read the storage\n\n//Transactions (can generate state changes) and require gas fee\n// read-only call, no gas free\n\n//public and external differs in terms of gas usage.\n// Public use more gas than the latter when used with large arrays of data. This is due to the fact that Solidity copies arguments to memory on a public function \n// External read from calldata which is cheaper than memory allocation.\n\n //Calldata is a temporary data location in Solidity. It acts like memory, in terms of its dependence on the function's execution.\n // The variables stored in calldata are only available inside the function they were declared in. On top of that, calldata variables are not modifiable.\n\n//to talk to the nod on the network you need to make json-rpc call",
  "sourcePath": "/Users/qwertyexperts/QwertyProjects/ethereum-web-app/contracts/FaucetContract.sol",
  "compiler": {
    "name": "solc",
    "version": "0.8.10+commit.fc410830.Emscripten.clang"
  },
  "schemaVersion": "3.4.3",
  "updatedAt": "2022-06-01T12:41:56.930Z",
  "networkType": "ethereum",
  "devdoc": {
    "kind": "dev",
    "methods": {},
    "version": 1
  },
  "userdoc": {
    "kind": "user",
    "methods": {},
    "version": 1
  }
}