{
  "contractName": "Test",
  "abi": [
    {
      "inputs": [
        {
          "internalType": "uint256",
          "name": "num",
          "type": "uint256"
        }
      ],
      "name": "test",
      "outputs": [
        {
          "internalType": "uint256",
          "name": "data",
          "type": "uint256"
        }
      ],
      "stateMutability": "pure",
      "type": "function"
    }
  ],
  "bytecode": "0x608060405234801561001057600080fd5b50610198806100206000396000f3fe608060405234801561001057600080fd5b506004361061002b5760003560e01c806329e99f0714610030575b600080fd5b61004a6004803603810190610045919061010b565b610060565b6040516100579190610147565b60405180910390f35b60006004604051505060d260405260006040518060600160405280600160ff168152602001600260ff168152602001600360ff1681525090507f68656c6c6f0000000000000000000000000000000000000000000000000000008060206090015260206090015192505050919050565b600080fd5b6000819050919050565b6100e8816100d5565b81146100f357600080fd5b50565b600081359050610105816100df565b92915050565b600060208284031215610121576101206100d0565b5b600061012f848285016100f6565b91505092915050565b610141816100d5565b82525050565b600060208201905061015c6000830184610138565b9291505056fea264697066735822122002574968af2f9512d47a876187158e02def79b1d8d44f7f726bf190049f1f70864736f6c634300080a0033",
  "immutableReferences": {},
  "source": "// SPDX-License-Identifier: MIT\npragma solidity >=0.4.22 <0.9.0;\n\ncontract Test{\n\n\n    function test(uint num) external pure returns(uint data){\n    assembly{\n        let _num := 4\n        let _fmp := mload(0x40) //mload ->memory load, fmp->free memory pointer, \n        //all the code of solidity is loaded into the memory that you can check at Ethereum IDE\n\n        //offset is that you can specify or intrupt the default location of storying data i.e\n        \n    }\n    assembly{\n        //memory store: sore 0x42 on the location of 0x40\n        mstore(0x40, 0xd2)\n    }\n\n    uint8[3] memory items = [1,2,3];\n\n    //offset is that you can specify or intrupt the default location of storying data i.e\n    assembly{\n        let hel := 'hello'\n        mstore(add(0x90,0x20),hel)\n        data := mload(add(0x90,0x20))\n    }\n\n        return data;\n    }\n}",
  "sourcePath": "/Users/qwertyexperts/QwertyProjects/ethereum-web-app/contracts/Text.sol",
  "compiler": {
    "name": "solc",
    "version": "0.8.10+commit.fc410830.Emscripten.clang"
  },
  "schemaVersion": "3.4.3",
  "updatedAt": "2022-05-31T16:46:29.233Z",
  "devdoc": {
    "kind": "dev",
    "methods": {},
    "version": 1
  },
  "userdoc": {
    "kind": "user",
    "methods": {},
    "version": 1
  }
}